:020000040800F2
:10000000008001207D6E0008756D0008816D00087C
:10001000876D00088D6D0008936D000800000000DA
:100020000000000000000000000000001156000861
:10003000996D000800000000E157000829580008E9
:10004000CD6E0008CD6E0008CD6E0008CD6E0008A4
:10005000CD6E0008CD6E0008CD6E0008A56D0008BD
:10006000CD6E0008CD6E0008CD6E0008CD6E000884
:10007000CD6E0008CD6E0008CD6E0008CD6E000874
:10008000CD6E0008CD6E0008CD6E0008CD6E000864
:10009000CD6E0008CD6E0008CD6E0008CD6E000854
:1000A000CD6E0008CD6E0008CD6E0008CD6E000844
:1000B000CD6E0008B56D0008CD6E0008CD6E00084D
:1000C000CD6E0008CD6E0008CD6E0008CD6E000824
:1000D000CD6E0008CD6E0008CD6E0008CD6E000814
:1000E000CD6E0008CD6E0008CD6E0008CD6E000804
:1000F000CD6E0008CD6E0008CD6E0008CD6E0008F4
:10010000CD6E0008CD6E0008CD6E0008CD6E0008E3
:10011000CD6E0008CD6E0008CD6E0008CD6E0008D3
:10012000CD6E0008CD6E0008CD6E0008CD6E0008C3
:10013000CD6E00080000000000000000CD6E000839
:10014000CD6E0008CD6E0008CD6E0008CD6E0008A3
:10015000CD6E0008CD6E0008CD6E0008CD6E000893
:10016000CD6E0008CD6E0008CD6E0008CD6E000883
:10017000CD6E0008CD6E00080000000000000000F9
:04018000CD6E000838
:1001900010B5054C237833B9044B13B10448AFF3C1
:1001A00000800123237010BD8800002000000000A3
:1001B0005C77000808B5034B1BB103490348AFF354
:1001C000008008BD000000008C0000205C77000863
:1001D00053B94AB9002908BF00281CBF4FF0FF31AE
:1001E0004FF0FF3000F074B9ADF1080C6DE904CEAA
:1001F00000F006F8DDF804E0DDE9022304B0704702
:100200002DE9F0478C460446089E002B4BD18A42CC
:10021000154667D9B2FA82F24AB1C2F1200701FA53
:1002200002F320FA07F7954047EA030C94404FEA9F
:10023000154EBCFBFEF71FFA85F80EFB17C307FB34
:1002400008F9210C41EA0343994509D9EB1807F154
:10025000FF3180F01C81994540F21981023F2B4407
:10026000A3EB0903B3FBFEF00EFB103300FB08F118
:10027000A4B244EA0344A14209D92C1900F1FF3386
:1002800080F00781A14240F2048102382C4440EA08
:1002900007400027641A1EB10023D440C6E900437A
:1002A0003946BDE8F0878B4209D9002E00F0EC807A
:1002B0000027C6E9000138463946BDE8F087B3FAA1
:1002C00083F7002F48D18B4202D3824200F2FB8099
:1002D000841A61EB030301209C46002EE0D0C6E99E
:1002E000004CDDE702B9FFDEB2FA82F2002A40F0EC
:1002F0008F800127491B4FEA15481FFA85F9B1FB8A
:10030000F8FE08FB1E1109FB0EF04FEA144C4CEAF4
:100310000143984207D9EB180EF1FF3102D29842FF
:1003200000F2CD808E461B1AB3FBF8F008FB1033A9
:1003300009FB00F9A4B244EA0344A14507D92C19EA
:1003400000F1FF3302D2A14500F2B6801846A4EBBB
:10035000090440EA0E409EE7C7F12005BB4022FA9F
:1003600005FC4CEA030C21FA05F44FEA1C4EB4FBE1
:10037000FEF91FFA8CF80EFB194420FA05F3B94078
:1003800009FB08FA19430B0C43EA0444A24502FA9C
:1003900007F200FA07F30BD91CEB040409F1FF3054
:1003A00080F08880A24540F28580A9F1020964446A
:1003B000A4EB0A04B4FBFEF00EFB104400FB08FAA9
:1003C00089B241EA0444A24508D91CEB040400F1B7
:1003D000FF316BD2A24569D90238644440EA094032
:1003E000A0FB0289A4EB0A044C454146CE4654D3F7
:1003F00051D0002E69D05A1A64EB0E0404FA05F5A8
:1004000022FA07F3FC401D43C6E90054002747E7E2
:100410009540C2F1200321FA03F04FEA1548B0FBE2
:10042000F8F71FFA85F908FB170024FA03F3914047
:1004300007FB09FC0B43190C41EA00418C4504FA07
:1004400002F407D9691807F1FF3031D28C452FD952
:10045000023F2944A1EB0C01B1FBF8F008FB101C92
:1004600000FB09FE99B241EA0C418E4507D9691893
:1004700000F1FF3318D28E4516D902382944A1EB7A
:100480000E0140EA07473AE73746304608E70F468D
:10049000E6E61846FBE64345ABD2B8EB020169EB52
:1004A0000C0201389646A4E71846E8E7084695E7A7
:1004B0000746CFE781467BE702382C4447E7AEF199
:1004C000020E2B442FE7384607E73746E8E600BF21
:1004D000704700BF80B400AF094B1B68094AA2FBFC
:1004E00003239B09084A1360054B1B68074AA2FBBC
:1004F00003239B0C064A136000BFBD4680BC7047B7
:1005000020000020D34D6210A800002083DE1B4392
:10051000A400002080B500AF074BDB68064A43F01B
:100520008073D360054B1B68044A43F001031360DA
:10053000FFF7D0FF00BF80BDF0ED00E0001000E04D
:1005400080B485B000AF78600A4B5B68FB600A4BF3
:100550001A687B6802FB03F37B6000BF054B5A6897
:10056000FB68D31A7A689A42F8D800BF1437BD46A0
:1005700080BC7047001000E0A800002080B485B067
:1005800000AF78600A4B5B68FB600A4B1A687B68B7
:1005900002FB03F37B6000BF054B5A68FB68D31A6C
:1005A0007A689A42F8D800BF1437BD4680BC7047BD
:1005B000001000E0A400002080B500AF0E4B1B68C7
:1005C0000D4A43F4007313600B4B1B680A4A43F453
:1005D00080631360084B1B68074A43F48073136001
:1005E000032000F0C1FC002006F06AFB06F03CFB93
:1005F0000023184680BD00BF003C024080B400AF1D
:10060000054B1B781A46054B1B681344034A1360BD
:1006100000BFBD4680BC704704000020744000202D
:1006200080B400AF024B1B681846BD4680BC7047C3
:100630007440002080B584B000AF78600023FB7365
:100640007B68002B01D1012333E07B681B6C002BFE
:1006500009D1786805F04EFB7B6800225A647B68FC
:10066000002283F83C207B681B6C03F01003002BF6
:1006700018D17B681B6C23F4885323F0020343F0EA
:1006800002027B681A64786800F09EFA7B68002298
:100690005A647B681B6C23F0030343F001027B6800
:1006A0001A6401E00123FB737B68002283F83C207D
:1006B000FB7B18461037BD4680BD000080B485B076
:1006C00000AF78600023FB607B6893F83C30012B1F
:1006D00001D1022388E07B68012283F83C207B68FB
:1006E0001B689B6803F00103012B18D07B681B6813
:1006F0009A687B681B6842F001029A603D4B1B6858
:100700003D4AA2FB03239A0C13465B001344FB6093
:1007100002E0FB68013BFB60FB68002BF9D17B68C2
:100720001B689B6803F00103012B5CD17B681B6C89
:1007300023F4E06323F0010343F480727B681A64BE
:100740007B681B685B6803F48063002B07D07B68C1
:100750001B6C23F4405343F480527B681A647B681B
:100760001B6C03F48053B3F5805F06D17B685B6C30
:1007700023F006027B685A6402E07B6800225A6418
:100780007B68002283F83C207B681B686FF02202A4
:100790001A601A4B5B6803F01F03002B0FD17B68B4
:1007A0001B689B6803F04053002B1CD17B681B68BF
:1007B0009A687B681B6842F080429A6013E07B680D
:1007C0001B680F4A93420ED17B681B689B6803F03D
:1007D0004053002B07D17B681B689A687B681B68B5
:1007E00042F080429A60002318461437BD4680BC10
:1007F000704700BF2000002083DE1B430023014020
:100800000020014080B483B000AF78607B6893F82B
:100810003C30012B01D1022321E07B68012283F8C7
:100820003C207B681B689A687B681B6822F0010289
:100830009A607B681B689B6803F00103002B09D159
:100840007B681B6C23F4885323F0010343F00102FF
:100850007B681A647B68002283F83C2000231846DA
:100860000C37BD4680BC704780B584B000AF78605F
:1008700039600023FB607B681B689B6803F480631E
:10088000B3F5806F13D17B681B689B6803F480739A
:10089000B3F5807F0BD17B681B6C43F020027B6833
:1008A0001A647B68002283F83C2001235CE0FFF798
:1008B000B7FEF8601AE03B68B3F1FF3F16D03B6823
:1008C000002B07D0FFF7ACFE0246FB68D31A3A684C
:1008D0009A420BD27B681B6C43F004027B681A645B
:1008E0007B68002283F83C2003233DE07B681B6883
:1008F0001B6803F00203022BDDD17B681B686FF0DD
:1009000012021A607B681B6C43F400727B681A64E5
:100910007B681B689B6803F04053002B23D17B68E6
:100920009B69002B1FD17B681B68DB6A03F4700393
:10093000002B06D07B681B689B6803F48063002B48
:1009400011D17B681B6C23F480727B681A647B680E
:100950001B6C03F48053002B05D17B681B6C43F0A8
:1009600001027B681A64002318461037BD4680BD1B
:1009700080B483B000AF78607B681B68DB6C18467E
:100980000C37BD4680BC704780B485B000AF78603E
:1009900039600023FB607B6893F83C30012B01D168
:1009A000022303E17B68012283F83C203B681B683B
:1009B000092B25D97B681B68D9683B681B689BB2EB
:1009C0001A4613465B0013441E3B072202FA03F348
:1009D000DA437B681B680A40DA607B681B68D96869
:1009E0003B689A683B681B689BB2184603465B00ED
:1009F00003441E3B9A407B681B680A43DA6022E08E
:100A00007B681B6819693B681B689BB21A461346D2
:100A10005B001344072202FA03F3DA437B681B6886
:100A20000A401A617B681B6819693B689A683B68D1
:100A30001B689BB2184603465B0003449A407B68E0
:100A40001B680A431A613B685B68062B24D87B68E5
:100A50001B68596B3B685A6813469B001344053B5F
:100A60001F2202FA03F3DA437B681B680A405A63C9
:100A70007B681B68596B3B681B689BB218463B68D8
:100A80005A6813469B001344053B00FA03F27B6847
:100A90001B680A435A634CE03B685B680C2B24D804
:100AA0007B681B68196B3B685A6813469B001344AC
:100AB000233B1F2202FA03F3DA437B681B680A40D8
:100AC0001A637B681B68196B3B681B689BB21846EE
:100AD0003B685A6813469B001344233B00FA03F219
:100AE0007B681B680A431A6323E07B681B68D96A2A
:100AF0003B685A6813469B001344413B1F2202FA8D
:100B000003F3DA437B681B680A40DA627B681B6880
:100B1000D96A3B681B689BB218463B685A68134603
:100B20009B001344413B00FA03F27B681B680A43B5
:100B3000DA627B681B68204A934209D13B681B68D4
:100B4000122B05D11D4B5B681C4A43F48003536094
:100B50007B681B68184A934223D13B681B68102BA3
:100B600003D03B681B68112B1BD1144B5B68134AE5
:100B700043F4000353603B681B68102B11D1104BEA
:100B80001B68104AA2FB03239A0C13469B001344D4
:100B90005B00FB6002E0FB68013BFB60FB68002B35
:100BA000F9D17B68002283F83C20002318461437D3
:100BB000BD4680BC704700BF0020014000230140BB
:100BC0002000002083DE1B4380B485B000AF786036
:100BD0007D4B5B687C4A23F4403353607A4B5A6800
:100BE0007B685B68784913434B607B681B685A6875
:100BF0007B681B6822F480725A607B681B685968A6
:100C00007B681B691A027B681B680A435A607B6811
:100C10001B685A687B681B6822F040725A607B68C8
:100C20001B6859687B689A687B681B680A435A602E
:100C30007B681B689A687B681B6822F400629A6074
:100C40007B681B6899687B68DA687B681B680A4365
:100C50009A607B689B6A5D4A934222D07B681B68DE
:100C60009A687B681B6822F070629A607B681B68D8
:100C700099687B689A6A7B681B680A439A607B68FC
:100C80001B689A687B681B6822F040529A607B68F8
:100C90001B6899687B68DA6A7B681B680A439A60FC
:100CA0000FE07B681B689A687B681B6822F07062A3
:100CB0009A607B681B689A687B681B6822F04052C8
:100CC0009A607B681B689A687B681B6822F0020246
:100CD0009A607B681B6899687B689B695A007B688F
:100CE0001B680A439A607B681B6A002B27D07B68CD
:100CF0001B685A687B681B6842F400625A607B6814
:100D00001B685A687B681B6822F460425A607B68E3
:100D10005B6A013B4FF46042FA60FA6892FAA2F211
:100D2000BA60BA68B2FA82F2D2B203FA02F17B6810
:100D30001B685A687B681B680A435A6007E07B6837
:100D40001B685A687B681B6822F400625A607B68E3
:100D50001B68DA6A7B681B6822F47002DA627B68BF
:100D60001B68D96A7B68DB69013B1A057B681B68D5
:100D70000A43DA627B681B689A687B681B6822F406
:100D800000729A607B681B6899687B681B6B5A02CB
:100D90007B681B680A439A607B681B689A687B685B
:100DA0001B6822F480629A607B681B6899687B6884
:100DB0005B699A027B681B680A439A6000BF14371C
:100DC000BD4680BC704700BF002301400100000FFA
:100DD00080B485B000AF78607B6803F00703FB60E8
:100DE0000C4BDB68BB60BA684FF6FF031340BB6077
:100DF000FB681A02BB68134343F0BF6343F400333C
:100E0000BB60044ABB68D36000BF1437BD4680BCDA
:100E1000704700BF00ED00E080B400AF044BDB681A
:100E20001B0A03F007031846BD4680BC704700BF8D
:100E300000ED00E080B483B000AF0346FB7197F98A
:100E40000730002B0BDBFB7903F01F02064997F9F3
:100E500007305B09012000FA02F241F8232000BFAD
:100E60000C37BD4680BC704700E100E080B483B021
:100E700000AF0346FB7197F90730002B10DBFB79BD
:100E800003F01F02094997F907305B09012000FAB6
:100E900002F2203341F82320BFF34F8FBFF36F8F4F
:100EA00000BF0C37BD4680BC704700BF00E100E0CA
:100EB00080B483B000AF03463960FB7197F9073007
:100EC000002B0ADB3B68DAB20C4997F907301201B4
:100ED000D2B20B4483F800230AE03B68DAB2084937
:100EE000FB7903F00F03043B1201D2B20B441A76D4
:100EF00000BF0C37BD4680BC704700BF00E100E07A
:100F000000ED00E080B489B000AFF860B9607A60AD
:100F1000FB6803F00703FB61FB69C3F10703042BC4
:100F200028BF0423BB61FB690433062B02D9FB698C
:100F3000033B00E000237B614FF0FF32BB6902FA04
:100F400003F3DA43BB681A407B699A404FF0FF31E4
:100F50007B6901FA03F3D9437B680B4013431846BE
:100F60002437BD4680BC704780B582B000AF786042
:100F70007868FFF72DFF00BF0837BD4680BD80B5FC
:100F800086B000AF0346B9607A60FB7300237B61D3
:100F9000FFF742FF78617A68B9687869FFF7B2FFB6
:100FA000024697F90F3011461846FFF781FF00BF40
:100FB0001837BD4680BD80B582B000AF0346FB71D7
:100FC00097F907301846FFF735FF00BF0837BD46D1
:100FD00080BD80B582B000AF0346FB7197F9073042
:100FE0001846FFF743FF00BF0837BD4680BD00002D
:100FF00080B487B000AF7860396000237B616FE117
:101000003B681A6801217B6901FA03F31340FB6016
:10101000FB68002B00F061813B685B68012B0BD003
:101020003B685B68022B07D03B685B68112B03D0E1
:101030003B685B68122B30D17B689B683B617B69A6
:101040005B00032202FA03F3DB433A6913403B617E
:101050003B68DA687B695B0002FA03F33A69134381
:101060003B617B683A699A607B685B683B610122FF
:101070007B6902FA03F3DB433A6913403B613B6847
:101080005B681B0903F001027B6902FA03F33A690A
:1010900013433B617B683A695A607B68DB683B615C
:1010A0007B695B00032202FA03F3DB433A691340D6
:1010B0003B613B689A687B695B0002FA03F33A691B
:1010C00013433B617B683A69DA603B685B68022BDB
:1010D00003D03B685B68122B23D17B69DA087B68FD
:1010E000083253F822303B617B6903F007039B0011
:1010F0000F2202FA03F3DB433A6913403B613B687A
:101100001A697B6903F007039B0002FA03F33A694B
:1011100013433B617B69DA087B680832396943F81D
:1011200022107B681B683B617B695B00032202FA2B
:1011300003F3DB433A6913403B613B685B6803F0B0
:1011400003027B695B0002FA03F33A6913433B61D4
:101150007B683A691A603B685B6803F08053002B38
:1011600000F0BB800023BB60644B5B6C634A43F4BC
:1011700080435364614B5B6C03F48043BB60BB688A
:101180005F4A7B699B08023352F823303B617B69DD
:1011900003F003039B000F2202FA03F3DB433A69D7
:1011A00013403B617B68574A934231D07B68564A73
:1011B00093422BD07B68554A934225D07B68544A92
:1011C00093421FD07B68534A934219D07B68524A9E
:1011D000934213D07B68514A93420DD07B68504AAA
:1011E000934207D07B684F4A934201D1082310E015
:1011F00009230EE007230CE006230AE0052308E09C
:10120000042306E0032304E0022302E0012300E0BC
:1012100000237A6902F00302920093401A463B6968
:1012200013433B6136497B699B0802333A6941F8B5
:1012300023203D4B1B683B61FB68DB433A6913404D
:101240003B613B685B6803F48033002B03D03A6951
:10125000FB6813433B61344A3B691360324B5B6864
:101260003B61FB68DB433A6913403B613B685B6869
:1012700003F40033002B03D03A69FB6813433B614E
:10128000294A3B695360284B9B683B61FB68DB4301
:101290003A6913403B613B685B6803F48013002BA1
:1012A00003D03A69FB6813433B611F4A3B69936073
:1012B0001D4BDB683B61FB68DB433A6913403B61D4
:1012C0003B685B6803F40013002B03D03A69FB68AA
:1012D00013433B61144A3B69D3607B6901337B61F3
:1012E0003B681A687B6922FA03F3002B7FF488AE0F
:1012F00000BF1C37BD4680BC704700BF00380240AD
:101300000038014000000240000402400008024092
:10131000000C02400010024000140240001802407D
:10132000001C024000200240003C014080B483B019
:1013300000AF78600B467B8013467B707B78002B78
:1013400003D07A887B689A6103E07B881A047B6803
:101350009A6100BF0C37BD4680BC704780B483B033
:1013600000AF78600B467B807B685A697B881340AE
:10137000002B04D07B881A047B689A6102E07A888B
:101380007B689A6100BF0C37BD4680BC7047000087
:1013900080B582B000AF0346FB80084B5A69FB88DA
:1013A0001340002B06D0054AFB885361FB88184682
:1013B00005F056F800BF0837BD4680BD003C01402F
:1013C00080B590B000AF78607B68002B01D101231D
:1013D00053E27B681B6803F00103002B50D0A34B42
:1013E0009B6803F00C03042B0CD0A04B9B6803F00C
:1013F0000C03082B12D19D4B5B6803F48003B3F5FB
:10140000800F0BD1994B1B6803F40033002B36D0AF
:101410007B685B68002B32D101232EE27B685A681F
:10142000934BD2B21A707B685B68002B13D0FFF726
:10143000F7F8B86308E0FFF7F3F80246BB6BD31A7E
:10144000642B01D9032318E2884B1B6803F4003393
:10145000002BF0D014E0FFF7E3F8B86308E0FFF7E3
:10146000DFF80246BB6BD31A642B01D9032304E2D5
:101470007E4B1B6803F40033002BF0D100E000BF6B
:101480007B681B6803F00203002B77D0774B9B68C7
:1014900003F00C03002B0BD0744B9B6803F00C0380
:1014A000082B26D1714B5B6803F48003002B20D1FD
:1014B0006E4B1B6803F00203002B05D07B68DB68D2
:1014C000012B01D00123D8E1684B1B6823F0F802FF
:1014D0007B681B69F8213963396B91FAA1F1F962D4
:1014E000F96AB1FA81F1C9B28B40604913430B60CC
:1014F00044E07B68DB68002B2AD05E4B01221A6037
:10150000FFF78EF8B86308E0FFF78AF80246BB6B76
:10151000D31A022B01D90323AFE1544B1B6803F00C
:101520000203002BF0D0514B1B6823F0F8027B68BC
:101530001B69F821B962B96A91FAA1F17962796AF5
:10154000B1FA81F1C9B28B40484913430B6015E0F1
:10155000484B00221A60FFF763F8B86308E0FFF712
:101560005FF80246BB6BD31A022B01D9032384E137
:101570003E4B1B6803F00203002BF0D17B681B6815
:1015800003F00803002B30D07B685B69002B16D07A
:10159000394B01221A60FFF743F8B86308E0FFF700
:1015A0003FF80246BB6BD31A022B01D9032364E137
:1015B0002E4B5B6F03F00203002BF0D015E02E4B97
:1015C00000221A60FFF72CF8B86308E0FFF728F84C
:1015D0000246BB6BD31A022B01D903234DE1234BE7
:1015E0005B6F03F00203002BF0D17B681B6803F0F4
:1015F0000403002B00F08880002387F83F301B4B4A
:101600001B6C03F08053002B10D10023BB60174BE1
:101610001B6C164A43F080531364144B1B6C03F08D
:101620008053BB60BB68012387F83F30134B1B68B6
:10163000124A43F480731360104B1B6803F48073E9
:10164000002B23D10D4B1B680C4A43F480731360AD
:10165000FEF7E6FFB86313E0FEF7E2FF0246BB6B5E
:10166000D31A022B0CD9032307E100BF0038024034
:101670000238024000004742800E4742007000409E
:10168000804B1B6803F48073002BE5D07B689A685D
:101690007D4BD2B21A707B689B68002B15D0FEF789
:1016A000BFFFB8630AE0FEF7BBFF0246BB6BD31A6D
:1016B00041F28832934201D90323DEE0734B1B6F62
:1016C00003F00203002BEED014E0FEF7A9FFB8638D
:1016D0000AE0FEF7A5FF0246BB6BD31A41F288323F
:1016E000934201D90323C8E0684B1B6F03F0020348
:1016F000002BEED197F83F30012B05D1634B1B6CCB
:10170000624A23F0805313647B689B69002B00F0CE
:10171000B3805E4B9B6803F00C03082B7DD07B6885
:101720009B69022B62D15A4B00221A60FEF778FFA8
:10173000B86308E0FEF774FF0246BB6BD31A642B54
:1017400001D9032399E0514B1B6803F00073002B70
:10175000F0D17B68DA697B681B6A1A437B685B6A35
:1017600047F6C0713961396991FAA1F1F960F968F8
:10177000B1FA81F1C9B28B401A437B689B6A5B085E
:10178000013B4FF44031B961B96991FAA1F1796136
:101790007969B1FA81F1C9B28B401A437B68DB6A7F
:1017A0004FF070613962396A91FAA1F1F961F96912
:1017B000B1FA81F1C9B28B40344913434B60344BC9
:1017C00001221A60FEF72CFFB86308E0FEF728FF3D
:1017D0000246BB6BD31A642B01D903234DE02B4B7C
:1017E0001B6803F00073002BF0D045E0284B00226B
:1017F0001A60FEF715FFB86308E0FEF711FF024616
:10180000BB6BD31A642B01D9032336E01F4B1B6833
:1018100003F00073002BF0D12EE07B689B69012B55
:1018200001D1012329E0194B5B687B637B6B03F4D7
:1018300080027B68DB699A421CD17B6B03F03F021C
:101840007B681B6A9A4215D17B6B9B09C3F3080224
:101850007B685B6A9A420DD17B6B03F440327B68F4
:101860009B6A9A4206D17B6B03F070627B68DB6AED
:101870009A4201D0012300E0002318464037BD46BC
:1018800080BD00BF00700040703802400038024048
:101890006000474280B586B000AF786039607B68F1
:1018A000002B01D10123D2E06B4B1B6803F00F0327
:1018B0003A689A420CD9684B3A68D2B21A70664BB1
:1018C0001B6803F00F033A689A4201D00123BEE07F
:1018D0007B681B6803F00203002B20D07B681B6829
:1018E00003F00403002B05D05C4B9B685B4A43F478
:1018F000E05393607B681B6803F00803002B05D05E
:10190000564B9B68554A43F460439360534B9B6826
:1019100023F0F0027B689B68504913438B607B681F
:101920001B6803F00103002B40D07B685B68012B30
:1019300007D14A4B1B6803F40033002B15D1012358
:1019400085E07B685B68022B07D1444B1B6803F082
:101950000073002B09D1012379E0404B1B6803F091
:101960000203002B01D1012371E03C4B9B6823F063
:1019700003027B685B68394913438B60FEF750FEB6
:1019800078610AE0FEF74CFE02467B69D31A41F209
:101990008832934201D9032359E0304B9B6803F00E
:1019A0000C027B685B689B009A42EBD12A4B1B6858
:1019B00003F00F033A689A420CD2274B3A68D2B22E
:1019C0001A70254B1B6803F00F033A689A4201D046
:1019D00001233CE07B681B6803F00403002B08D064
:1019E0001E4B9B6823F4E0527B68DB681B49134362
:1019F0008B607B681B6803F00803002B09D0174B32
:101A00009B6823F460427B681B69DB001349134326
:101A10008B6000F02BF80146104B9B6803F0F0033D
:101A2000F0223A613A6992FAA2F2FA60FA68B2FADE
:101A300082F2D2B2D3400A4AD35C21FA03F3094AB4
:101A40001360094B1B68184605F03AF90023184645
:101A50001837BD4680BD00BF003C02400038024040
:101A6000787900082000002000000020F0B585B043
:101A700000AF00237B600023FB6000233B6000235A
:101A8000BB60634B9B6803F00C03042B07D0082B4F
:101A900008D0002B40F0B4805E4BBB60B3E05E4BDF
:101AA000BB60B0E05A4B5B6803F03F037B60584B70
:101AB0005B6803F48003002B4AD0554B5B689B099D
:101AC0004FF0000440F2FF114FF0000203EA01055D
:101AD00004EA0206294632464FF000034FF00004A4
:101AE000540144EAD1644B0119462246491B62EB7A
:101AF00006024FF000034FF00004940144EA9164A1
:101B00008B015B1A64EB02044FF000014FF00002FE
:101B1000E20042EA5372D9000B4614465B1944EBCB
:101B200006044FF000014FF00002620242EAD35275
:101B300059020B461446184621467B684FF00004B4
:101B40001A462346FEF744FB03460C46FB6049E079
:101B50002F4B5B689B094FF0000440F2FF114FF0E0
:101B6000000203EA010504EA0206294632464FF064
:101B700000034FF00004540144EAD1644B011946BC
:101B80002246491B62EB06024FF000034FF00004AF
:101B9000940144EA91648B015B1A64EB02044FF0F8
:101BA00000014FF00002E20042EA5372D9000B46F6
:101BB00014465B1944EB06044FF000014FF000029D
:101BC000A20242EA935299020B4614461846214655
:101BD0007B684FF000041A462346FEF7F9FA0346E5
:101BE0000C46FB600A4B5B681B0C03F003030133DC
:101BF0005B003B60FA683B68B2FBF3F3BB6002E05A
:101C0000044BBB6000BFBB6818461437BD46F0BD2F
:101C1000003802400024F40000127A0080B400AFC3
:101C2000024B1B681846BD4680BC70472000002050
:101C300080B582B000AFFFF7F1FF01460B4B9B6808
:101C400003F4E0534FF4E0527A607A6892FAA2F219
:101C50003A603A68B2FA82F2D2B2D340044AD35C14
:101C600021FA03F318460837BD4680BD003802400C
:101C70008879000880B483B000AF786039607B68F1
:101C80000F221A60114B9B6803F003027B685A60B5
:101C90000E4B9B6803F0F0027B689A600B4B9B68CD
:101CA00003F4E0527B68DA60084B9B68DB0803F4BE
:101CB000E0527B681A61064B1B6803F00F023B6819
:101CC0001A6000BF0C37BD4680BC70470038024028
:101CD000003C024080B582B000AF78607B68002B8A
:101CE00001D101231CE07B685B79DBB2002B05D1BD
:101CF0007B6800221A71786804F0ACFE7B680222CF
:101D00005A717B681B681A687B681B6842F0040282
:101D10001A607B6801225A717B6800229A60002356
:101D200018460837BD4680BD80B582B000AF7860E8
:101D30007B68002B01D1012356E07B6800229A6268
:101D40007B6893F85130DBB2002B06D17B68002210
:101D500083F85020786804F009FF7B68022283F83A
:101D600051207B681B681A687B681B6822F0400260
:101D70001A607B685A687B689B681A437B68DB68DB
:101D80001A437B681B691A437B685B691A437B684B
:101D90009B6903F400731A437B68DB691A437B6811
:101DA0001B6A42EA03017B689A6A7B681B680A43E4
:101DB0001A607B689B691B0C03F004017B685A6AFC
:101DC0007B681B680A435A607B681B68DA697B681A
:101DD0001B6822F40062DA617B6800225A657B6826
:101DE000012283F85120002318460837BD4680BDE4
:101DF00080B588B000AFF860B9603B601346FB80E7
:101E00000023FB77FB6893F85030012B01D10223AC
:101E10001EE1FB68012283F85020FEF701FCB86147
:101E2000FB88FB82FB6893F85130DBB2012B02D0B8
:101E30000223FB7703E1BB68002B02D0FB88002B59
:101E400002D10123FB77FAE0FB68032283F85120DB
:101E5000FB6800225A65FB68BA681A63FB68FA8857
:101E60009A86FB68FA88DA86FB6800229A63FB6828
:101E700000229A87FB680022DA87FB6800225A64F6
:101E8000FB6800221A64FB689B68B3F5004F07D11A
:101E9000FB681B681A68FB681B6842F480421A6082
:101EA000FB681B681B6803F04003402B07D0FB68EE
:101EB0001B681A68FB681B6842F040021A60FB68E6
:101EC000DB68B3F5006F4BD1FB685B68002B02D079
:101ED000FB8A012B3ED1FB681B6B1A88FB681B68D1
:101EE000DA60FB681B6B9A1CFB681A63FB68DB8E6D
:101EF0009BB2013B9AB2FB68DA862BE0FB681B6859
:101F00009B6803F00203022B12D1FB681B6B1A883B
:101F1000FB681B68DA60FB681B6B9A1CFB681A6322
:101F2000FB68DB8E9BB2013B9AB2FB68DA8611E05C
:101F3000FEF776FB0246BB69D31A3A689A4203D889
:101F40003B68B3F1FF3F02D13B68002B02D1032372
:101F5000FB7774E0FB68DB8E9BB2002BCED14CE0AC
:101F6000FB685B68002B02D0FB8A012B40D1FB6829
:101F70001A6BFB681B680C3312781A70FB681B6BBA
:101F80005A1CFB681A63FB68DB8E9BB2013B9AB25A
:101F9000FB68DA862CE0FB681B689B6803F0020391
:101FA000022B13D1FB681A6BFB681B680C33127889
:101FB0001A70FB681B6B5A1CFB681A63FB68DB8E8C
:101FC0009BB2013B9AB2FB68DA8611E0FEF728FB70
:101FD0000246BB69D31A3A689A4203D83B68B3F108
:101FE000FF3F02D13B68002B02D10323FB7726E0A1
:101FF000FB68DB8E9BB2002BCDD1BA693968F868DB
:1020000000F074FB0346002B02D0FB6820225A65C7
:10201000FB689B68002B0AD100233B61FB681B68AF
:10202000DB683B61FB681B689B683B613B69FB6845
:102030005B6D002B02D00123FB7700E000BFFB6843
:10204000012283F85120FB68002283F85020FB7F97
:1020500018462037BD4680BD80B588B002AFF86015
:10206000B9603B601346FB800023FB75FB685B682F
:10207000B3F5827F12D1FB689B68002B0ED1FB6801
:10208000042283F85120FA883B6800931346BA680B
:10209000B968F86800F0E9F80346E2E0FB6893F8F5
:1020A0005030012B01D10223DBE0FB68012283F8D1
:1020B0005020FEF7B5FA3861FB6893F85130DBB277
:1020C000012B02D00223FB75C2E0BB68002B02D0BB
:1020D000FB88002B02D10123FB75B9E0FB680422C9
:1020E00083F85120FB6800225A65FB68BA689A633E
:1020F000FB68FA889A87FB68FA88DA87FB6800220F
:102100001A63FB6800229A86FB680022DA86FB6865
:1021100000221A64FB6800225A64FB689B68B3F5CE
:10212000004F07D1FB681B681A68FB681B6822F424
:1021300080421A60FB681B681B6803F04003402B59
:1021400007D0FB681B681A68FB681B6842F04002F6
:102150001A60FB68DB68002B62D12EE0FB681B680D
:102160009B6803F00103012B15D1FB681B6803F189
:102170000C02FB689B6B1278D2B21A70FB689B6BE7
:102180005A1CFB689A63FB68DB8F9BB2013B9AB2D7
:10219000FB68DA8711E0FEF743FA02463B69D31A7F
:1021A0003A689A4203D83B68B3F1FF3F02D13B68DB
:1021B000002B02D10323FB754AE0FB68DB8F9BB247
:1021C000002BCBD131E0FB681B689B6803F0010357
:1021D000012B13D1FB681B68DA68FB689B6B92B21A
:1021E0001A80FB689B6B9A1CFB689A63FB68DB8F09
:1021F0009BB2013B9AB2FB68DA8711E0FEF710FA56
:1022000002463B69D31A3A689A4203D83B68B3F155
:10221000FF3F02D13B68002B02D10323FB7517E07F
:10222000FB68DB8F9BB2002BCDD13A693968F86827
:1022300000F027FA0346002B02D0FB6820225A65E3
:10224000FB685B6D002B02D00123FB7500E000BF33
:10225000FB68012283F85120FB68002283F850209C
:10226000FB7D18461837BD4680BD80B58CB000AFE9
:10227000F860B9607A607B800123FB62002387F8F5
:102280002B30FB6893F85030012B01D102238AE1F7
:10229000FB68012283F85020FEF7C2F97862FB68E0
:1022A00093F8513087F82330FB685B68FB617B88CB
:1022B0007B8397F82330012B0FD0FB69B3F5827F26
:1022C00007D1FB689B68002B03D197F82330042BC0
:1022D00003D0022387F82B305BE1BB68002B05D0CD
:1022E0007B68002B02D07B88002B03D1012387F869
:1022F0002B304EE1FB6893F85130DBB2042B03D056
:10230000FB68052283F85120FB6800225A65FB68B0
:102310007A689A63FB687A88DA87FB687A889A8792
:10232000FB68BA681A63FB687A88DA86FB687A8881
:102330009A86FB6800221A64FB6800225A64FB68D4
:102340001B681B6803F04003402B07D0FB681B6829
:102350001A68FB681B6842F040021A60FB68DB6881
:10236000B3F5006F78D1FB685B68002B02D07B8BE4
:10237000012B66D1FB681B6B1A88FB681B68DA604F
:10238000FB681B6B9A1CFB681A63FB68DB8E9BB2B5
:10239000013B9AB2FB68DA8653E0FB681B689B68D6
:1023A00003F00203022B1BD1FB68DB8E9BB2002BD8
:1023B00016D0FB6A012B13D1FB681B6B1A88FB68D4
:1023C0001B68DA60FB681B6B9A1CFB681A63FB686E
:1023D000DB8E9BB2013B9AB2FB68DA860023FB627C
:1023E000FB681B689B6803F00103012B19D1FB6894
:1023F000DB8F9BB2002B14D0FB681B68DA68FB688C
:102400009B6B92B21A80FB689B6B9A1CFB689A6369
:10241000FB68DB8F9BB2013B9AB2FB68DA87012332
:10242000FB62FEF7FDF802467B6AD31ABA6B9A424A
:1024300007D8BB6BB3F1FF3F03D0032387F82B30E2
:10244000A7E0FB68DB8E9BB2002BA6D1FB68DB8F7D
:102450009BB2002BA1D17CE0FB685B68002B02D013
:102460007B8B012B6BD1FB681A6BFB681B680C33F1
:1024700012781A70FB681B6B5A1CFB681A63FB68A6
:10248000DB8E9BB2013B9AB2FB68DA8657E0FB68B1
:102490001B689B6803F00203022B1CD1FB68DB8ED8
:1024A0009BB2002B17D0FB6A012B14D1FB681A6B6F
:1024B000FB681B680C3312781A70FB681B6B5A1C84
:1024C000FB681A63FB68DB8E9BB2013B9AB2FB6828
:1024D000DA860023FB62FB681B689B6803F001033C
:1024E000012B19D1FB68DB8F9BB2002B14D0FB684A
:1024F0001B68DA68FB689B6BD2B21A70FB689B6B37
:102500005A1CFB689A63FB68DB8F9BB2013B9AB253
:10251000FB68DA870123FB62FEF782F802467B6ADA
:10252000D31ABA6B9A4203D8BB6BB3F1FF3F02D107
:10253000BB6B002B03D1032387F82B3029E0FB680A
:10254000DB8E9BB2002BA2D1FB68DB8F9BB2002BF2
:102550009DD17A6AB96BF86800F0C8F80346002B81
:1025600006D0012387F82B30FB6820225A6510E043
:10257000FB689B68002B0BD100237B61FB681B6809
:10258000DB687B61FB681B689B687B617B6900E0A3
:1025900000BFFB68012283F85120FB68002283F80A
:1025A000502097F82B3018463037BD4680BD80B597
:1025B00084B000AFF860B9603B601346FB714CE03B
:1025C0003B68B3F1FF3F48D0FEF72AF80246BB69EB
:1025D000D31A3A689A4202D93B68002B3DD1FB6876
:1025E0001B685A68FB681B6822F0E0025A60FB68AF
:1025F0005B68B3F5827F11D1FB689B68B3F5004F30
:1026000004D0FB689B68B3F5806F07D1FB681B683B
:102610001A68FB681B6822F040021A60FB689B6A1C
:10262000B3F5005F0FD1FB681B681A68FB681B6875
:1026300022F400521A60FB681B681A68FB681B686A
:1026400042F400521A60FB68012283F85120FB68B3
:10265000002283F8502003230FE0FB681B689A6870
:10266000BB681340BA689A420CBF01230023DBB257
:102670001A46FB799A42A3D1002318461037BD466B
:1026800080BD80B586B002AFF860B9607A60FB6843
:102690005B68B3F5827F11D1FB689B68B3F5004F8F
:1026A00004D0FB689B68B3F5806F07D1FB681B689B
:1026B0001A68FB681B6822F040021A607B6800936E
:1026C000BB6800228021F868FFF771FF0346002BEA
:1026D00007D0FB685B6D43F02002FB685A6503235B
:1026E00000E0002318461037BD4680BD80B586B097
:1026F00002AFF860B9607A607B680093BB68002223
:102700008021F868FFF753FF0346002B07D0FB68D2
:102710005B6D43F02002FB685A65032300E0002351
:1027200018461037BD4680BD80B582B000AF7860D6
:102730007B68002B01D101231DE07B6893F83D30BD
:10274000DBB2002B06D17B68002283F83C2078683E
:1027500000F015F87B68022283F83D207B681A6838
:102760007B6804331946104600F062F97B68012249
:1027700083F83D20002318460837BD4680BD80B44D
:1027800083B000AF786000BF0C37BD4680BC704797
:1027900080B485B000AF78607B681B68DA687B68BE
:1027A0001B6842F00102DA607B681B689B6803F0DB
:1027B0000703FB60FB68062B07D07B681B681A6861
:1027C0007B681B6842F001021A6000231846143728
:1027D000BD4680BC704780B582B000AF78607B6832
:1027E0001B681B6903F00203022B22D17B681B6864
:1027F000DB6803F00203022B1BD17B681B686FF0C0
:1028000002021A617B6801221A777B681B689B6948
:1028100003F00303002B03D0786800F0EDF805E027
:10282000786800F0E0F8786800F0EFF87B68002244
:102830001A777B681B681B6903F00403042B22D101
:102840007B681B68DB6803F00403042B1BD17B68E7
:102850001B686FF004021A617B6802221A777B689A
:102860001B689B6903F44073002B03D0786800F069
:10287000C3F805E0786800F0B6F8786800F0C5F8AD
:102880007B6800221A777B681B681B6903F00803CA
:10289000082B22D17B681B68DB6803F00803082B38
:1028A0001BD17B681B686FF008021A617B680422E9
:1028B0001A777B681B68DB6903F00303002B03D0E6
:1028C000786800F099F805E0786800F08CF878688E
:1028D00000F09BF87B6800221A777B681B681B69F5
:1028E00003F01003102B22D17B681B68DB6803F018
:1028F0001003102B1BD17B681B686FF010021A614C
:102900007B6808221A777B681B68DB6903F44073D5
:10291000002B03D0786800F06FF805E0786800F0CD
:1029200062F8786800F071F87B6800221A777B689B
:102930001B681B6903F00103012B0ED17B681B6828
:10294000DB6803F00103012B07D17B681B686FF084
:1029500001021A61786804F051F87B681B681B69F2
:1029600003F08003802B0ED17B681B68DB6803F0CB
:102970008003802B07D17B681B686FF080021A618F
:10298000786800F0FCF87B681B681B6903F0400363
:10299000402B0ED17B681B68DB6803F04003402BA3
:1029A00007D17B681B686FF040021A61786800F0FD
:1029B00035F87B681B681B6903F02003202B0ED1C0
:1029C0007B681B68DB6803F02003202B07D17B6842
:1029D0001B686FF020021A61786800F0C7F800BF2A
:1029E0000837BD4680BD80B483B000AF786000BFBB
:1029F0000C37BD4680BC704780B483B000AF7860B0
:102A000000BF0C37BD4680BC704780B483B000AFB8
:102A1000786000BF0C37BD4680BC704780B483B07F
:102A200000AF786000BF0C37BD4680BC7047000027
:102A300080B485B000AF786039607B681B68FB604C
:102A40007B683F4A934213D07B68B3F1804F0FD02D
:102A50007B683C4A93420BD07B683B4A934207D049
:102A60007B683A4A934203D07B68394A934208D143
:102A7000FB6823F07003FB603B685B68FA681343F4
:102A8000FB607B682E4A93422BD07B68B3F1804F6A
:102A900027D07B682B4A934223D07B682A4A9342F3
:102AA0001FD07B68294A93421BD07B68284A9342F7
:102AB00017D07B68274A934213D07B68264A9342FB
:102AC0000FD07B68254A93420BD07B68244A9342FF
:102AD00007D07B68234A934203D07B68224A934203
:102AE00008D1FB6823F44073FB603B68DB68FA683D
:102AF0001343FB60FB6823F080023B685B69134370
:102B0000FB607B68FA681A603B689A687B68DA62E7
:102B10003B681A687B689A627B68094A934203D0D3
:102B20007B680B4A934203D13B681A697B681A633E
:102B30007B6801225A6100BF1437BD4680BC7047D4
:102B4000000001400004004000080040000C00406C
:102B500000040140004001400044014000480140A1
:102B600000180040001C00400020004080B483B0EA
:102B700000AF786000BF0C37BD4680BC704780B4A2
:102B800083B000AF786000BF0C37BD4680BC704793
:102B900080B586B002AF0346FB710023FB7307F1DB
:102BA0000F02F91D4FF40053009301230648FFF76D
:102BB0005CFB0346002B01D000F0A6FAFB7B184615
:102BC0001037BD4680BD00BF5047002080B584B09F
:102BD00000AF03460A46FB711346BB71154B4FF419
:102BE00000029A610520FDF7C9FC97F9063003F051
:102BF0001F035AB297F9073013435BB2DBB2184692
:102C0000FFF7C6FF97F90630002B02DAFF20FFF727
:102C1000BFFFFF20FFF7BCFF0346FB73054B80227D
:102C20009A610520FDF7AAFCFB7B18461037BD46CC
:102C300080BD00BF0008024080B582B000AF0346EF
:102C4000FB710B46BB7113467B71114B4FF40002B5
:102C50009A610520FDF792FC97F9063003F01F03F7
:102C60005AB297F9073013435BB2DBB21846FFF74D
:102C70008FFF7B791846FFF78BFF054B80229A6107
:102C80000520FDF77BFC00BF0837BD4680BD00BFB7
:102C90000008024080B500AF0A4B4FF400029A6171
:102CA0000520FDF76BFCFF20FFF772FF054B80222C
:102CB0009A610520FDF762FC034B00221A7000BFE9
:102CC00080BD00BF00080240AC00002080B584B089
:102CD00000AF0346FB71FB7903F01F031A2B18DCCE
:102CE000FB795B09DBB203F00303FB730B4B1B782F
:102CF000FA7B9A420DD003221F21A020FFF79CFFF0
:102D0000FB7B1A461F218020FFF796FF034AFB7BBF
:102D1000137000BF1037BD4680BD00BFAC0000205F
:102D200080B582B000AF0346FB71FB791846FFF710
:102D3000CDFFFB7919460020FFF748FF03461846F0
:102D40000837BD4680BD80B582B000AF03460A4655
:102D5000FB711346BB71FB791846FFF7B7FFBA79D1
:102D6000FB7919464020FFF767FF00BF0837BD46D3
:102D700080BD80B582B000AF03460A46FB711346A2
:102D8000BB80FB791846FFF7A1FFBB88DAB2FB795D
:102D900019464020FFF750FFFB790133D9B2BB88B9
:102DA0001B0A9BB2DBB21A464020FFF745FF00BF6B
:102DB0000837BD4680BD80B582B000AF03460A46E5
:102DC000FB711346BB71FB791846FFF77FFFBA7999
:102DD000FB791946A020FFF72FFF00BF0837BD463B
:102DE00080BD80B582B000AF03460A46FB71134632
:102DF000BB71FB791846FFF769FFBA79FB79194671
:102E00008020FFF719FF00BF0837BD4680BD0000D6
:102E100090B583B000AF78600B467B80104B4FF4C9
:102E200000029A610520FDF7A9FB3A20FFF7B0FEEA
:102E300007E07C68631C7B60FF20FFF7A9FE034668
:102E400023707B885A1E7A80002BF2D1044B80229B
:102E50009A610520FDF792FB00BF0C37BD4690BD7F
:102E60000008024080B582B000AF78600B467B80DE
:102E7000104B4FF400029A610520FDF77FFB7A208A
:102E8000FFF786FE06E07B685A1C7A601B781846BE
:102E9000FFF77EFE7B885A1E7A80002BF3D1054B0C
:102EA00080229A610520FDF769FB00BF0837BD4607
:102EB00080BD00BF0008024080B582B000AF03466D
:102EC0000A46FB711346BB80FB791946D420FFF7F5
:102ED0003AFFBB881946D620FFF74BFF00BFEA2018
:102EE000FFF71EFF034603F00103002BF7D100BFDD
:102EF0000837BD4680BD000080B582B000AF786065
:102F0000FFF7C8FE00210820FFF733FF00210C2047
:102F1000FFF72FFF41F6FF110A20FFF72AFF304B82
:102F200000221A800D21C020FFF70DFF0021C120D3
:102F3000FFF709FF3321C220FFF705FF4FF40071AF
:102F4000CA20FFF716FF1521C420FFF7FCFE12214F
:102F5000C620FFF7F8FE0C21C720FFF7F4FE7B68C0
:102F60001B781946E420FFF7EEFE7B6801331B78DF
:102F70001946E520FFF7E7FE7B6802331B78194608
:102F8000E220FFF7E0FE7B6803331B781946E3205D
:102F9000FFF7D9FE7B6804331B781946E020FFF762
:102FA000D2FE7B6805331B781946E120FFF7CBFE84
:102FB0004FF480710020FFF77FFF4FF480711020E5
:102FC000FFF77AFF40F276411420FFF775FF0421E6
:102FD0001F20FFF706FF00BF0837BD4680BD00BFBA
:102FE000AE00002080B582B000AF78600B467B80D9
:102FF0000FE01C20FFF794FE034603F00203002BB2
:1030000007D080211F20FFF7ECFE80211F20FFF753
:10301000D2FE1F20FFF784FE034603F00803002BB7
:10302000E7D14FF4D0510220FFF7A3FE01210E4853
:10303000FFF718FF7B8819467868FFF713FF4FF4F6
:10304000D0510420FFF795FE7B8803F5D0539BB247
:1030500019460620FFF78DFE08211F20FFF7C1FE4D
:1030600000BF0837BD4680BD7477000880B584B0C6
:1030700000AF78600B467B800023FB813920FFF78F
:103080004FFE0346002B38D01E4B1B8819460020EC
:10309000FFF76FFE02211B48FFF7BAFE07F10A0394
:1030A00002211846FFF7B4FE07F108030221184673
:1030B000FFF7AEFE3B8903F08003002B0DD07B8928
:1030C000043BFB81FA897B889A4201D97B88FB818A
:1030D000FB8919467868FFF79BFE0A4B1B88013B6A
:1030E0009BB2C3F30C03BB81BB8919460C20FFF7CD
:1030F00040FE40211E20FFF774FEFB891846103762
:10310000BD4680BDAE00002080B400AF00BFBD460C
:1031100080BC704780B584B000AF78600B467B8080
:103120007B680E33FB60FB681433BB607B8808331D
:103130007B80FB6811225A72174B1A68FB68DA60B1
:103140007B881B0A9BB21AB27B881B021BB21343FB
:103150001BB29AB2BB689A80BB6800229A710022A7
:10316000DA717B8811331846BB68A3F108017B88AC
:1031700008339BB21A4600F05FF803461A46BB6854
:10318000DA807B881946786800F09AF8034618467A
:103190001037BD4680BD00BF1000002080B584B050
:1031A00000AF78600B467B807B680E33FB60FB686A
:1031B0001433BB607B88072B14D9BB689B889BB2F8
:1031C0001B0A9BB21AB2BB689B889BB21B021BB244
:1031D00013431BB29BB2083B7B807B8819467868FF
:1031E00002F006FE00BF1037BD4680BD80B584B03A
:1031F00000AF78600B467B807B680E33FB60FB681A
:103200001433BB607B88072B12D9BB681B78082B53
:103210000ED1BB6800221A70BB685B889BB2083372
:103220009AB2BB685A807B881946786800F0CEF85D
:1032300000BF1037BD4680BD80B485B000AFF860D8
:10324000B9601346FB8010E0BB681B781B02BA68AC
:103250000132127813431A46FB681344FB60BB68C3
:103260000233BB60FB88023BFB80FB88012BEBD861
:10327000FB88002B0DD0BB681B781B021A46FB682D
:103280001344FB6005E0FB689AB2FB681B0C134417
:10329000FB60FB681B0C002BF5D1FB689BB21B0A83
:1032A0009BB21AB2FB689BB21B021BB213431BB248
:1032B0009BB2DB439BB218461437BD4680BC7047B7
:1032C00080B586B000AF78600B467B807B680E339C
:1032D0003B613B691A693A4B1B68D943394B1B6800
:1032E0000B439A4206D17B680622FF21184603F061
:1032F00024FE1FE03B691A69324B1B685A40304B71
:103300001B681340002B03D13B691B697B6102E002
:103310002D4B1B687B61786900F026F9F860FB682B
:10332000002B01D1002346E07B680622F96818468D
:1033300003F0F8FD7B68002242F008021A730022B5
:103340005A737B8814337B803B6945221A703B6932
:1033500000225A707B881B0A9BB21AB27B881B0220
:103360001BB213431BB29AB23B695A803B690022DD
:103370001A7100225A713B6900229A710022DA7197
:103380003B6940221A723B6900229A720022DA726B
:103390000C4B1A683B69DA60142239690020FFF788
:1033A0004BFF03461A463B695A817B881946786869
:1033B00000F0CAF9012318461837BD4680BD00BF8A
:1033C00014000020100000201800002080B584B0F8
:1033D00000AF78600B467B807B680E33FB607B8898
:1033E00014337B807B881B0A9BB21AB27B881B023A
:1033F0001BB213431BB29AB2FB685A80FB680022CF
:103400001A7100225A71FB6800229A710022DA7147
:10341000FB6840221A72FB6800229A720022DA725C
:10342000FB68DA68FB681A610A4B1A68FB68DA60A5
:103430001422F9680020FFF7FFFE03461A46FB68D6
:103440005A817B881946786800F098F900BF1037D8
:10345000BD4680BD1000002080B584B000AF78600C
:103460000B467B807B680E33FB60FB689A7ADB7AC5
:103470001B0213437B81FB6800229A720022DA72DE
:10348000FB681B78452B3CD11422F9680020FFF71C
:10349000D3FE03461A467B89934232D1FB681A69F0
:1034A0001A4B1B689A4209D0FB681A69184B1B68B3
:1034B000D943164B1B680B439A4222D1FB685B88A9
:1034C0009BB21B0A9BB21AB2FB685B889BB21B02C1
:1034D0001BB213431BB29BB2143B7B80FB685B7A2D
:1034E000012B02D0112B06D00BE07B88194678689F
:1034F000FFF77CFE05E07B8819467868FFF74EFEF3
:1035000000BF00BF1037BD4680BD00BF10000020C7
:103510001400002080B485B000AF78600023FB73F6
:1035200016E0FA7B0F4913469B0013445B000B44E3
:103530001B687A689A4208D1FA7B13469B001344B1
:103540005B00084A1344043306E0FB7B0133FB7342
:10355000FB7B022BE5D9002318461437BD4680BCFF
:10356000704700BF8042002080B586B000AF786011
:103570002B4B7B617B690E333B617868FFF7CAFF99
:10358000F860FB68002B01D0FB6844E07B690622F1
:10359000FF21184603F0D1FC7B69002242F00802AB
:1035A0001A73002242F006025A733B6900221A7015
:1035B000002242F001025A703B69002242F00802E8
:1035C0009A700022DA703B6906221A713B69042264
:1035D0005A713B6900229A71002242F00102DA71AD
:1035E0003B6908330F4A1068186092889A800E4B26
:1035F0001A683B69C3F80E203B691233062200218A
:10360000184603F09AFC3B697A689A611C21786934
:1036100000F09AF8002318461837BD4680BD00BF59
:1036200080400020080000201000002080B584B0F9
:1036300000AF78600B467B807B680E33FB607B8835
:103640001B2B74D9FB681B889BB2B3F5807F6ED1AE
:10365000FB685B889BB2082B69D1FB689A69364B83
:103660001B689A4263D1FB68DB889BB2B3F5807F0D
:1036700003D0B3F5007F26D059E0FB6800229A7191
:10368000002242F00202DA71FB6803F11200FB68CB
:1036900008330622194603F045FCFB680833274A25
:1036A0001068186092889A80FB68D3F80E20FB6837
:1036B0009A61214B1A68FB68C3F80E201C217868B8
:1036C00000F05CF833E0FB68D3F80E301846FFF7E3
:1036D00021FF0346002B29D1194B1B781846FB68A4
:1036E000D3F80E20174903469B0003445B000B44AC
:1036F0001A60134B1B781A4613469B0013445B0059
:10370000104A1344181DFB6808330622194603F0BB
:1037100009FC0B4B1B780133DAB2094B1A70084BCA
:103720001B78032B02D1064B00221A7000BF00BF8A
:103730001037BD4680BD00BF1000002008000020EB
:103740007C4000208042002080B582B000AF7860CD
:103750000B467B807B680633074A106818609288A6
:103760009A807B880E339BB219467868FFF73AFC43
:1037700000BF0837BD4680BD0800002080B582B07C
:1037800000AF78600B467B8078687B680633062242
:10379000194603F0C7FB7B680633084A10681860B7
:1037A00092889A807B880E339BB219467868FFF71F
:1037B00019FC00BF0837BD4680BD00BF08000020CF
:1037C00080B582B000AF78600B467B807B880D2B84
:1037D00018D97B689B899BB2082B0BD0B3F5C16FBE
:1037E00000D00FE07B880E3B9BB219467868FFF74C
:1037F0001DFF07E07B880E3B9BB219467868FFF7F8
:103800002BFE00BF00BF0837BD4680BD80B500AFAE
:103810000248FFF771FB00BF80BD00BF0800002019
:1038200080B582B000AF0B4B7B6004E07B8819460B
:103830007868FFF7C5FF4FF400710648FFF716FCE4
:1038400003467B807B88002BF0D100BF0837BD4644
:1038500080BD00BF8040002080B584B000AF78609C
:103860000123BB730023FB7300233B7300237B7393
:1038700000233B7200237B7244233B7314E07B687C
:103880005B6998477B681B6807F1080107F10C002A
:10389000022298477B689B6998477B68DB69052013
:1038A0009847FB7B0133FB737B7AFF2BE7D1BB7B14
:1038B00018461037BD4680BD80B582B000AF786035
:1038C0007B68DB6898477B68DB690A2098477B68E0
:1038D0001B6998477868FFF7BFFF786800F0B4F875
:1038E0007868FFF7B9FF00BF0837BD4680BDB0B5A7
:1038F00088B000AFF860B9601346FB806B461D4688
:103900000023FB77FB88013BBB61F9884FF0000285
:103910004FF000034FF00004D40044EA5174CB0090
:10392000F9884FF000024FF000034FF00004D4007C
:1039300044EA5174CB00FB880733DB08DB00ADEBB6
:10394000030D6B4600337B617B69FA8800211846C2
:1039500003F0F3FAF868FFF77FFF0346002B0ED061
:10396000FB685B699847FB681B687969FA88B868E7
:103970009847FB689B6998470023FB7701E0E223A7
:10398000FB7797F91F30AD4618462037BD46B0BDCE
:10399000B0B588B000AFF860B9601346FB716B46F4
:1039A0001D460023FB77FB79BB61FB790133194688
:1039B0004FF000024FF000034FF00004D40044EA3F
:1039C0005174CB00FB79013319464FF000024FF0E0
:1039D00000034FF00004D40044EA5174CB00FB799B
:1039E00001330733DB08DB00ADEB030D6B4600331F
:1039F0007B617869FB7901331A46002103F09DFA57
:103A00007B6944221A70F868FFF726FF0346002BF3
:103A100011D0FB685B699847FB681B687869FA7985
:103A200092B2013292B2B9689847FB689B69984795
:103A30000023FB7701E0E223FB7797F91F30AD46C7
:103A400018462037BD46B0BD80B584B000AF786061
:103A500000233B7300233B727B685B6998477B685C
:103A60001B6807F1080107F10C00012298477B68E9
:103A70009B69984700BF1037BD4680BD80B588B0B0
:103A800000AF78600023FB770023BB7707F10C03BE
:103A900011220021184603F050FA07F10C0302220C
:103AA00019467868FFF774FF0346DAB2BB7F134408
:103AB000DBB2BB777B7BFF2B02D1FF23FB7701E0DF
:103AC0000023FB77FB7F18462037BD4680BD0000F2
:103AD000B0B5E2B000AF3B1D1860002387F883311A
:103AE00007F10803434A1846114640F26D131A467F
:103AF00003F018FA07F10803C7F884313B1D186872
:103B0000FFF7DAFE69E06B461D46D7F884311B7873
:103B100087F8823197F882010346013BC7F87C3170
:103B2000C1B24FF000024FF000034FF00004D40088
:103B300044EA5174CB00C1B24FF000024FF00003D1
:103B40004FF00004D40044EA5174CB00034607331D
:103B5000DB08DB00ADEB030D6B460033C7F87831B3
:103B6000D7F8783197F882210021184603F0E5F95B
:103B7000D7F884310133C7F88431D7F8783197F812
:103B80008221D7F88411184603F0CCF9D7F87811C0
:103B900097F882319AB23B1D1868FFF7A8FE0346DA
:103BA00087F8833197F98331002B13D197F882314D
:103BB000D7F884211344C7F884313B1D1868FFF7F8
:103BC0004BFE0346002B03D1D82387F8833102E054
:103BD000AD4602E000BFAD4604E0D7F884311B7863
:103BE000002B90D197F98331184607F5C477BD466D
:103BF000B0BD00BF7877000880B58AB000AF7860AC
:103C0000002387F8273007F11003112200211846FE
:103C100003F093F9A34B1B68FB6007F10C0304222C
:103C200019467868FFF763FE0346DAB297F8273043
:103C30001344DBB287F8273007F110030922194635
:103C40007868FFF7A5FE0346DAB297F827301344E9
:103C5000DBB287F8273097F92730002B40F01C8122
:103C60007B7CFF2B40F018813B7D87F82630BB7DA5
:103C700087F825303B7E87F8243097F82630DB091B
:103C8000DBB203F00103002B14BF01230023DAB2DF
:103C90007B6883F8282097F826309B1103F00103F6
:103CA000002B14BF01230023DAB27B6883F829209C
:103CB00097F826305B1103F00103002B14BF01239A
:103CC0000023DAB27B6883F82A2097F826301B118C
:103CD00003F00103002B14BF01230023DAB27B6839
:103CE00083F82B2097F82630DB1003F00103002B1C
:103CF00014BF01230023DAB27B6883F82C2097F8E5
:103D000026305B1003F00103002B14BF01230023B6
:103D1000DAB27B6883F82D2097F8263003F0010390
:103D2000002B14BF01230023DAB27B6883F82E2016
:103D300097F825309B1103F00103002B14BF0123DA
:103D40000023DAB27B6883F82F2097F825305B11C7
:103D500003F00103002B14BF01230023DAB27B68B8
:103D600083F8302097F825301B1103F00103002B56
:103D700014BF01230023DAB27B6883F8312097F85F
:103D80002530DB1003F00103002B14BF01230023B7
:103D9000DAB27B6883F8322097F825309B1003F065
:103DA0000103002B14BF01230023DAB27B6883F8E0
:103DB000332097F825305B1003F00103002B14BF6C
:103DC00001230023DAB27B6883F8342097F825308A
:103DD00003F00103002B14BF01230023DAB27B6838
:103DE00083F8352097F824309B1103F00103002B52
:103DF00014BF01230023DAB27B6883F8362097F8DA
:103E000024305B1103F00103002B14BF01230023B6
:103E1000DAB27B6883F8372097F824301B1103F05F
:103E20000103002B14BF01230023DAB27B6883F85F
:103E3000382097F82430DB1003F00103002B14BF67
:103E400001230023DAB27B6883F8392097F8243005
:103E50009B1003F00103002B14BF01230023DAB2EF
:103E60007B6883F83A2097F824305B1003F0010355
:103E7000002B14BF01230023DAB27B6883F83B20B8
:103E800097F8243003F00103002B14BF0123002313
:103E9000DAB27B6883F83C2097F927301846283738
:103EA000BD4680BDF078000880B588B000AF78606E
:103EB0000023FB7707F10C0311220021184603F0C1
:103EC0003CF820233B7200237B720023BB7200234B
:103ED000FB7207F10803042219467868FFF707FD13
:103EE0000346DAB2FB7F1344DBB2FB7707F10C0326
:103EF000092219467868FFF74BFD0346DAB2FB7FCB
:103F00001344DBB2FB7797F91F30002B04D17B7B86
:103F1000FF2B01D10023FB7797F91F30184620377C
:103F2000BD4680BD80B584B000AF78600023FB73D0
:103F30007868FFF7B9FF0346DAB2FB7B1344DBB2C4
:103F4000FB73786800F080F80346DAB2FB7B134419
:103F5000DBB2FB7397F90F3018461037BD4680BDB2
:103F600080B584B000AF786039600023FB73012313
:103F70003B7307F10C03012219467868FFF7B7FC81
:103F80000346DAB2FB7B1344DBB2FB730A223968C7
:103F90007868FFF7FDFC0346DAB2FB7B1344DBB223
:103FA000FB7397F90F3018461037BD4680BD0000EF
:103FB00080B588B000AF78600023FB7707F10C0371
:103FC00011220021184602F0B8FF1E4B1B883B81CE
:103FD00007F10803022219467868FFF788FC0346B8
:103FE000DAB2FB7F1344DBB2FB7707F10C03052247
:103FF00019467868FFF7CCFC0346DAB2FB7F13441E
:10400000DBB2FB7797F91F30002B0DD17B7BFF2BA9
:104010000AD13A7C7B6883F83D207A7C7B6883F800
:104020003E200023FB7707E07B68FF2283F83D20DA
:104030007B68FF2283F83E2097F91F30184620370F
:10404000BD4680BDF478000880B588B000AF7860C8
:104050000023FB7707F10C0311220021184602F020
:104060006CFF23233B7200237B7207F108030222BB
:1040700019467868FFF73BFC0346DAB2FB7F13442E
:10408000DBB2FB7707F10C03052219467868FFF7CE
:104090007FFC0346DAB2FB7F1344DBB2FB7797F970
:1040A0001F30002B04D17B7BFF2B01D10023FB773A
:1040B00097F91F3018462037BD4680BD80B586B0C1
:1040C00000AF7860084611461A4603467B800B46CF
:1040D0007B7013463B700023FB750023BB750023E8
:1040E0007B7500233B757B78002B01D00823BB75C3
:1040F0003B78002B01D008237B7597F82030002BEC
:1041000001D008233B7532233B730A237B730023C2
:10411000BB737B881B0A9BB2DBB2FB737B88DBB271
:104120003B74BB7D7B747B7DBB743B7DFB7407F173
:104130000C03082219467868FFF7D9FB0346DAB268
:10414000FB7D1344DBB2FB757868FFF785FB034604
:10415000002B03D1FB7D3C3BDBB2FB7597F917309D
:1041600018461837BD4680BD80B584B000AF786072
:10417000084611461A460346FB700B463B80134621
:10418000BB700023FB7331233B72FB787B72BB78DF
:104190001B01DBB2BB723B881B0A9BB2DBB203F094
:1041A0001F03DBB2FB723B88DBB23B7307F10803F2
:1041B000052219467868FFF79AFB0346DAB2FB7BC3
:1041C0001344DBB2FB737868FFF746FB0346002B12
:1041D00003D1FB7B3C3BDBB2FB7397F90F301846F6
:1041E0001037BD4680BDB0B588B000AFF860B9608B
:1041F0001346FB806B461D460023FB77FB88BB61A3
:10420000FB88013319464FF000024FF000034FF0D6
:104210000004D40044EA5174CB00FB8801331946F2
:104220004FF000024FF000034FF00004D40044EAC6
:104230005174CB00FB8801330733DB08DB00ADEBA7
:10424000030D6B4600337B617869FB8801331A46A6
:10425000002102F072FE7B6966221A707B690133CD
:10426000FA88B968184602F05DFEFB685B699847FA
:10427000FB689B687869FA88013292B211469847C8
:10428000FB689B69984797F91F30AD461846203761
:10429000BD46B0BDB0B58AB000AFF860B960134696
:1042A000FB806B461D46002387F826300A2387F8DB
:1042B0002730FB883B62FB88013319464FF0000230
:1042C0004FF000034FF00004D40044EA5174CB00D7
:1042D000FB88013319464FF000024FF000034FF006
:1042E0000004D40044EA5174CB00FB880133073347
:1042F000DB08DB00ADEB030D6B460033FB61F869B7
:10430000FB8801331A46002102F017FEFB88BB61CF
:10431000FB88013319464FF000024FF000034FF0C5
:104320000004D40044EA5174CB00FB8801331946E1
:104330004FF000024FF000034FF00004D40044EAB5
:104340005174CB00FB8801330733DB08DB00ADEB96
:10435000030D6B4600337B617869FB8801331A4695
:10436000002102F0EAFD7B6977221A702AE0F868E2
:10437000FFF772FA0346002B18D0FB685B69984779
:10438000FB681B687869F969FA88013292B298472C
:10439000FB689B699847FB690133FA881946B8683E
:1043A00002F0C0FD002387F826300FE0FB68DB69D0
:1043B0000120984797F82730013B87F82730E22300
:1043C00087F8263097F82730002BD0D197F9263080
:1043D000AD4618462837BD46B0BD80B588B000AFA1
:1043E00078600023BB770023FB7707F10C031122D1
:1043F0000021184602F0A1FD15233B7200237B72B9
:1044000007F10803022219467868FFF770FA03469D
:10441000DAB2BB7F1344DBB2BB7707F10C03102287
:1044200019467868FFF7B4FA0346DAB2BB7F134443
:10443000DBB2BB7797F91E30002B02D1FB7BFB77F9
:1044400001E0FF23FB77FB7F18462037BD4680BD88
:1044500080B584B000AF78600023FB730A4B1B88E3
:10446000BB8107F10C03022219467868FFF73FFA77
:104470000346DAB2FB7B1344DBB2FB7397F90F30D0
:1044800018461037BD4680BDF878000880B584B066
:1044900000AF78600023FB730A4B1B88BB8107F1D8
:1044A0000C03022219467868FFF721FA0346DAB2B4
:1044B000FB7B1344DBB2FB7397F90F3018461037C0
:1044C000BD4680BDFC78000880B586B000AFF860BE
:1044D0007A601A460B46FB721346BB720023FB75CB
:1044E0000023BB75F868FFF71DFD0346DAB2FB7DBC
:1044F0001344DBB2FB75F868FFF76FFF0346BB752B
:10450000BA7DBB7A9A421DD3BB7DFF2B1AD0BB7AF2
:104510009BB21A467968F868FFF765FE0346DAB27F
:10452000FB7D1344DBB2FB75BB7A9AB2F97A0823A0
:10453000F868FFF719FE0346DAB2FB7D1344DBB2DD
:10454000FB7503E0FB7D323BDBB2FB7597F917305F
:1045500018461837BD4680BD80B58AB000AF786078
:10456000084611461A460346FB700B46BB701346BD
:104570007B70002387F8273007F1200304220021F5
:10458000184602F0DAFC07F10C031122002118464C
:1045900002F0D3FC122387F82030FB7887F8213013
:1045A000BB7887F822307B7887F8233007F1200327
:1045B000042219467868FFF79AF90346DAB297F8A9
:1045C00027301344DBB287F8273007F10C031022A1
:1045D00019467868FFF7DCF90346DAB297F8273016
:1045E0001344DBB287F8273007F10C030233BA78A3
:1045F0001946386B02F096FC7B7BFF2B05D097F8B1
:104600002730283BDBB287F8273097F92730184648
:104610002837BD4680BDB0B586B000AF786008468B
:1046200011461A460346FB700B46BB7013467B705F
:104630006B461D460023FB75BB7803333B61BB789B
:10464000043319464FF000024FF000034FF000040E
:10465000D40044EA5174CB00BB78043319464FF0C0
:1046600000024FF000034FF00004D40044EA5174FC
:10467000CB00BB7804330733DB08DB00ADEB030D65
:104680006B460033FB60F868BB7804331A460021A0
:1046900002F053FCFB6811221A70FB68FA785A701A
:1046A000FB68BA789A70FB687A78DA70FB68043332
:1046B000BA78B96A184602F035FCF968BB789BB243
:1046C00004339BB21A467868FFF711F90346DAB251
:1046D000FB7D1344DBB2FB757868FFF7CFF9034627
:1046E000FF2B03D0FB7D283BDBB2FB7597F917301E
:1046F000AD4618461837BD46B0BD80B586B000AF90
:1047000078600023FB8200237B7507F110030222EF
:104710000021184602F011FC07F1080308220021CD
:10472000184602F00AFC14233B7408237B7407F13B
:104730001003022219467868FFF7D9F80346DAB267
:104740007B7D1344DBB27B7507F108030822194611
:104750007868FFF71DF90346DAB27B7D1344DBB2BC
:104760007B753B7B1B021AB27B7B1BB213431BB2D4
:10477000FB827B7AFF2B03D07B7D283BDBB27B75F2
:10478000FB8A18461837BD4680BD80B586B000AF9D
:1047900078600023FB8200237B7507F1100302225F
:1047A0000021184602F0C9FB07F108030822002186
:1047B000184602F0C2FB14233B7410237B7407F1EC
:1047C0001003022219467868FFF791F80346DAB21F
:1047D0007B7D1344DBB27B7507F108030822194681
:1047E0007868FFF7D5F80346DAB27B7D1344DBB275
:1047F0007B75BB7B1B021AB2FB7B1BB213431BB244
:10480000FB827B7AFF2B03D07B7D283BDBB27B7561
:10481000FB8A18461837BD4680BD80B586B002AF0A
:1048200078600B46FB700023FB7300233B7300236F
:104830003B72FB783B7307F10C03009301230422C6
:1048400022217868FFF7E7FE0346DAB2FB7B1344C8
:10485000DBB2FB7307F1080300930123042222213A
:104860007868FFF779FE0346DAB2FB7B1344DBB2CC
:10487000FB733A7B3B7A5340DAB2FB781340DBB2EE
:10488000002B07D097F90F30002B03D0FB7B013BA7
:10489000DBB2FB7397F90F3018461037BD4680BD69
:1048A00080B586B000AF78600023FB7507F10C037C
:1048B0000A220021184602F040FB07F10C031946BA
:1048C0007868FFF74DFBFB7B442B02D13B7C632BCD
:1048D00003D0FB7D0A3BDBB2FB7597F91730184616
:1048E0001837BD4680BD80B485B000AF0346FB805D
:1048F0000023FB60B7F90630842B05D0B7F90620FA
:10490000FB6813440333FB60FB6818461437BD464D
:1049100080BC704780B500AF00F0CCFA0023184689
:1049200080BDF0B589B004AF786039607B685B69A1
:10493000002B20D07B689B69002B1CD07B685C68B7
:104940007B681D687B681E697B68B3F90830184670
:10495000FFF7C9FF01467B685B697A68926902923A
:10496000019300913B6832462946204600F0E8F862
:104970000346FB601CE07B685C687B681D687B68A5
:104980001B699EB27B68B3F908301846FFF7ABFF8E
:10499000024607F10C03019300923B683246294618
:1049A000204600F026F90346012B01D0002300E049
:1049B000FB6818461437BD46F0BD80B584B000AF23
:1049C00078607B68FB60FB68002B01D0FB6800E02F
:1049D0000123184600F03AFA002318461037BD4666
:1049E00080BD80B483B000AF78607B6803F10802BB
:1049F0007B685A607B684FF0FF329A607B6803F1F6
:104A000008027B68DA607B6803F108027B681A6140
:104A10007B6800221A6000BF0C37BD4680BC70471F
:104A200080B483B000AF78607B6800221A6100BF59
:104A30000C37BD4680BC704780B485B000AF78604D
:104A400039607B685B68FB603B68FA685A60FB68AA
:104A50009A683B689A60FB689B683A685A60FB6892
:104A60003A689A603B687A681A617B681B685A1CCE
:104A70007B681A6000BF1437BD4680BC704780B4A5
:104A800085B000AF786039603B681B68BB60BB686D
:104A9000B3F1FF3F03D17B681B69FB600CE07B68CF
:104AA0000833FB6002E0FB685B68FB60FB685B68E7
:104AB0001B68BA689A42F6D2FB685A683B685A602B
:104AC0003B685B683A689A603B68FA689A60FB6882
:104AD0003A685A603B687A681A617B681B685A1C9E
:104AE0007B681A6000BF1437BD4680BC704780B435
:104AF00085B000AF78607B681B69FB607B685B6892
:104B00007A6892689A607B689B687A6852685A6093
:104B1000FB685B687A689A4203D17B689A68FB6895
:104B20005A607B6800221A61FB681B685A1EFB688A
:104B30001A60FB681B6818461437BD4680BC704776
:104B400080B58EB004AFF860B9607A603B607B6B73
:104B5000002B09D14FF0500383F31188BFF36F8FFF
:104B6000BFF34F8F3B62FEE7BB6B002B09D14FF0C9
:104B7000500383F31188BFF36F8FBFF34F8FFB6137
:104B8000FEE754233B613B69542B09D04FF050039F
:104B900083F31188BFF36F8FBFF34F8FBB61FEE7C5
:104BA000BB6B002B1ED07B6B002B1BD0BB6B7B62C7
:104BB0007B6A7A6B1A637B6A022283F85120002396
:104BC00003937B6A029307F1140301933B6B0093F9
:104BD0003B687A68B968F86800F050F8786A00F0C5
:104BE000CBF801E000237B617B6918462837BD467E
:104BF00080BD80B58CB004AFF860B9603B601346EF
:104C0000FB80FB889B00184600F050FE78617B69B2
:104C1000002B0ED0542000F049FEF861FB69002BF8
:104C200003D0FB697A691A6305E0786900F000FF38
:104C300001E00023FB61FB69002B17D0FB69002218
:104C400083F85120FA8800230393FB690293FB6ADF
:104C50000193BB6A00933B68B968F86800F00EF8EE
:104C6000F86900F089F80123BB6102E04FF0FF33DF
:104C7000BB61BB6918462037BD4680BD80B588B092
:104C800000AFF860B9607A603B603B6B1A6B7B6881
:104C900003F18043013B9B001344BB61BB6923F0DC
:104CA0000703BB61BB6903F00703002B09D04FF07A
:104CB000500383F31188BFF36F8FBFF34F8F7B6176
:104CC000FEE70023FB6112E0BA68FB691344197820
:104CD0003A6BFB69134434330A461A70BA68FB69AD
:104CE00013441B78002B06D0FB690133FB61FB6981
:104CF0000F2BE9D900E000BF3B6B002283F8432073
:104D0000BB6A062B01D90623BB623B6BBA6ADA6227
:104D10003B6BBA6A5A643B6B00229A643B6B043368
:104D20001846FFF77DFE3B6B18331846FFF778FEF9
:104D30003B6B3A6B1A61BB6AC3F107023B6B9A612A
:104D40003B6B3A6B5A623B6B0022DA643B6B00228E
:104D500083F850203A68F968B86900F005FC02460B
:104D60003B6B1A60FB6A002B02D0FB6A3A6B1A603D
:104D700000BF2037BD4680BD80B582B000AF7860EF
:104D800000F0DAFC2A4B1B680133294A1360294BD7
:104D90001B68002B09D1274A7B681360244B1B68D2
:104DA000012B10D100F0BCFA0DE0234B1B68002B47
:104DB00009D1204B1B68DA6A7B68DB6A9A4202D809
:104DC0001C4A7B6813601D4B1B6801331B4A136030
:104DD0007B68DB6A01229A40194B1B681343184A0F
:104DE00013607B68DA6A13469B0013449B00154AE4
:104DF0001A447B68043319461046FFF71DFE00F085
:104E0000C9FC0D4B1B68002B0ED00A4B1B68DA6ADD
:104E10007B68DB6A9A4207D20B4B4FF080521A60D4
:104E2000BFF34F8FBFF36F8F00BF0837BD4680BD04
:104E3000B0010020B0000020BC010020CC01002007
:104E4000B8010020B400002004ED00E080B584B07B
:104E500000AF78600023FB607B68002B16D0134BFB
:104E60001B68002B09D04FF0500383F31188BFF368
:104E70006F8FBFF34F8FBB60FEE700F079F8002122
:104E8000786800F00BFB00F081F8F860FB68002BFD
:104E900007D1074B4FF080521A60BFF34F8FBFF31B
:104EA0006F8F00BF1037BD4680BD00BFD801002006
:104EB00004ED00E080B58AB004AF0023BB6000239E
:104EC0007B603A46391D07F10803184600F0EEFFF3
:104ED00039687B68BA68029201930023009300232B
:104EE0000A461D491D48FFF72BFE02461C4B1A605F
:104EF0001B4B1B68002B02D001237B6101E00023C8
:104F00007B617B69012B15D14FF0500383F311882E
:104F1000BFF36F8FBFF34F8F3B61124B4FF0FF32E8
:104F20001A60114B01221A60104B00221A6000F027
:104F300093FB0DE07B69B3F1FF3F09D14FF05003C4
:104F400083F31188BFF36F8FBFF34F8FFB60FEE7D2
:104F500000BF1837BD4680BD08790008F15200082F
:104F6000D4010020D0010020BC010020B4010020A9
:104F700080B400AF044B1B680133034A136000BFC9
:104F8000BD4680BC704700BFD801002080B584B00A
:104F900000AF0023FB600023BB60414B1B68002B6C
:104FA00009D14FF0500383F31188BFF36F8FBFF324
:104FB0004F8F3B60FEE700F0BFFB394B1B68013BA6
:104FC000374A1360364B1B68002B61D1354B1B6889
:104FD000002B5DD02EE0344BDB68DB68FB60FB68A8
:104FE00018331846FFF783FDFB6804331846FFF7B4
:104FF0007EFDFB68DB6A01229A402C4B1B68134341
:105000002A4A1360FB68DA6A13469B0013449B002C
:10501000274A1A44FB68043319461046FFF70CFD73
:10502000FB68DA6A234B1B68DB6A9A4202D3224B85
:1050300001221A601C4B1B68002BCCD1FB68002B93
:1050400001D000F007FA1D4B1B687B607B68002BCA
:1050500010D000F037F80346002B02D0164B012287
:105060001A607B68013B7B607B68002BF1D1134B9E
:1050700000221A60104B1B68002B09D00123BB6073
:105080000F4B4FF080521A60BFF34F8FBFF36F8FFB
:1050900000F080FBBB6818461037BD4680BD00BFDE
:1050A000D8010020B001002070010020B8010020CC
:1050B000B4000020B0000020C4010020C001002086
:1050C00004ED00E080B586B000AF00237B61504B5B
:1050D0001B68002B40F08C804E4B1B6801333B61FA
:1050E0004C4A3B6913603B69002B1FD14A4B1B683C
:1050F0001B68002B09D04FF0500383F31188BFF3D6
:105100006F8FBFF34F8F3B60FEE7434B1B68FB6025
:10511000424B1B68404A1360404AFB681360404B97
:105120001B6801333E4A136000F094F93D4B1B6845
:105130003A699A424DD3384B1B681B68002B01D14A
:10514000012300E00023002B04D0364B4FF0FF3248
:105150001A603EE0304B1B68DB68DB68BB60BB68F5
:105160005B687B603A697B689A4203D22D4A7B6810
:1051700013602EE0BB6804331846FFF7B8FCBB6829
:105180009B6A002B04D0BB6818331846FFF7AFFCAE
:10519000BB68DB6A01229A40234B1B681343224AF7
:1051A0001360BB68DA6A13469B0013449B001F4AD6
:1051B0001A44BB68043319461046FFF73DFCBB6830
:1051C000DA6A1B4B1B68DB6A9A42B4D301237B610A
:1051D000B1E7174B1B68DA6A144913469B00134466
:1051E0009B000B441B68012B07D901237B6104E062
:1051F000104B1B6801330F4A13600F4B1B68002BC9
:1052000001D001237B617B6918461837BD4680BDFC
:10521000D8010020B4010020680100206C010020AA
:10522000C8010020D0010020B8010020B4000020F7
:10523000B0000020C0010020C401002080B487B06D
:1052400000AF264B1B68002B03D0254B01221A60B0
:105250003EE0234B00221A60224B1B68FB60FB6878
:10526000B3FA83F3FB72FB7AC3F11F037B611E4920
:105270007A6913469B0013449B000B441B68002B68
:1052800009D14FF0500383F31188BFF36F8FBFF341
:105290004F8F7B60FEE77A6913469B0013449B00A7
:1052A000114A13443B613B695B685A683B695A6029
:1052B0003B695A683B6908339A4204D13B695B6891
:1052C0005A683B695A603B695B68DB68074A136050
:1052D00000BF1C37BD4680BC704700BFD80100200E
:1052E000C4010020B8010020B4000020B00000205C
:1052F00080B582B000AF786000F052F8064B1B68B2
:10530000012BF9D9054B4FF080521A60BFF34F8F34
:10531000BFF36F8FF0E700BFB400002004ED00E0A2
:1053200080B582B000AF00237B600CE07A68134642
:105330009B0013449B00124A13441846FFF751FB8D
:105340007B6801337B607B68062BEFD90D48FFF744
:1053500048FB0D48FFF745FB0C48FFF742FB0C48A4
:10536000FFF73FFB0B48FFF73CFB0B4B054A1A606E
:105370000A4B054A1A6000BF0837BD4680BD00BF12
:10538000B4000020400100205401002070010020E2
:10539000840100209C010020680100206C01002095
:1053A00080B582B000AF19E000F0C6F90F4BDB68A2
:1053B000DB687B607B6804331846FFF798FB0C4B77
:1053C0001B68013B0A4A13600A4B1B68013B094AF0
:1053D000136000F0DFF9786800F00EF8054B1B68E9
:1053E000002BE1D100BF0837BD4680BD84010020FD
:1053F000B00100209801002080B584B000AF786033
:105400007B6893F85130002B08D17B681B6B1846E2
:1054100000F00EFB786800F00BFB17E07B6893F858
:105420005130012B03D1786800F002FB0EE07B685D
:1054300093F85130022B09D04FF0500383F31188B9
:10544000BFF36F8FBFF34F8FFB60FEE700BF1037D6
:10545000BD4680BD80B483B000AF0E4B1B681B6897
:10546000002B01D1012300E00023002B04D00A4BC4
:105470004FF0FF321A6008E0064B1B68DB68DB6800
:105480007B607B685B68044A136000BF0C37BD46D5
:1054900080BC704768010020D001002080B584B036
:1054A00000AF78603960294B1B68FB60284B1B6894
:1054B00004331846FFF71BFB0346002B0BD1244B8C
:1054C0001B68DB6A012202FA03F3DA43214B1B68F3
:1054D0001340204A13607B68B3F1FF3F0AD13B6859
:1054E000002B07D01A4B1B68043319461A48FFF7E4
:1054F000A3FA26E0FA687B681344BB60144B1B6870
:10550000BA685A60BA68FB689A4209D2134B1A68A3
:105510000F4B1B68043319461046FFF7B0FA10E032
:105520000F4B1A680A4B1B68043319461046FFF7E5
:10553000A6FA0C4B1B68BA689A4202D2094ABB68A9
:10554000136000BF1037BD4680BD00BFB40100200E
:10555000B0000020B80100209C0100206C01002058
:1055600068010020D001002080B485B000AFF86051
:10557000B9607A60FB68043BFB60FB684FF08072A7
:105580001A60FB68043BFB60BB6823F00102FB6808
:105590001A60FB68043BFB60084AFB681A60FB6802
:1055A000143BFB607A68FB681A60FB68203BFB6079
:1055B000FB6818461437BD4680BC7047C1550008CB
:1055C00080B485B000AF00237B60104B1B68B3F143
:1055D000FF3F09D04FF0500383F31188BFF36F8F63
:1055E000BFF34F8FFB60FEE74FF0500383F311884A
:1055F000BFF36F8FBFF34F8FBB6000BF7B68002B83
:10560000FCD000BF1437BD4680BC70471C00002092
:10561000074B19680868B0E8F00F80F30988BFF3FA
:105620006F8F4FF0000080F311884EF00D0E704721
:10563000B000002000BF00BF06480068006880F38B
:10564000088862B661B6BFF34F8FBFF36F8F00DF7C
:1056500000BF00BF08ED00E080B584B000AF314B63
:10566000FB60FB681B78DBB27B60FB68FF221A7073
:10567000FB681B78DBB2FB70FB78DBB203F05003F6
:10568000DAB2294B1A70294B07221A6009E0274B1E
:105690001B68013B254A1360FB78DBB25B00DBB281
:1056A000FB70FB78DBB203F08003802BEFD01F4B45
:1056B0001B68C3F10703042B09D04FF0500383F399
:1056C0001188BFF36F8FBFF34F8FBB60FEE7174B9F
:1056D0001B681B02154A1360144B1B6803F4E0633C
:1056E000124A13607B68DAB2FB681A70104B1B68B1
:1056F0000F4A43F4700313600D4B1B680C4A43F0D0
:105700007043136000F0B0F80A4B00221A60FFF7F4
:1057100093FFFFF793FDFFF753FF00231846103761
:10572000BD4680BD00E400E0DC010020E001002077
:1057300020ED00E01C00002080B483B000AF4FF0EB
:10574000500383F31188BFF36F8FBFF34F8F7B60DC
:105750000E4B1B6801330D4A13600C4B1B68012B69
:105760000ED10B4B1B68DBB2002B09D04FF050035E
:1057700083F31188BFF36F8FBFF34F8F3B60FEE75A
:1057800000BF0C37BD4680BC704700BF1C00002026
:1057900004ED00E080B483B000AF104B1B68002B19
:1057A00009D14FF0500383F31188BFF36F8FBFF31C
:1057B0004F8F7B60FEE7094B1B68013B074A136074
:1057C000064B1B68002B04D100233B603B6883F32E
:1057D000118800BF0C37BD4680BC70471C000020FC
:1057E000EFF30980BFF36F8F0D4B1A6820E9F00FBC
:1057F00010602DE908404FF0500080F31188FFF74A
:105800001DFD4FF0000080F31188BDE808401968C5
:105810000868B0E8F00F80F30988BFF36F8F704716
:10582000B000002000BF00BF80B582B000AF4FF0D5
:10583000500383F31188BFF36F8FBFF34F8F7B60EB
:10584000FFF740FC0346002B03D0064B4FF080527D
:105850001A6000233B603B6883F3118800BF083760
:10586000BD4680BD04ED00E080B400AF0A4B0022CD
:105870001A600A4B00221A60094B1B68094AA2FBF6
:1058800003239B09084A013B1360034B07221A605C
:1058900000BFBD4680BC704710E000E018E000E0AB
:1058A00020000020D34D621014E000E080B58AB0E3
:1058B00000AF78600023FB61FFF75AFB574B1B6872
:1058C000002B01D100F00CF9554B1A687B6813408E
:1058D000002B40F08C807B68002B1CD008227B685A
:1058E00013447B607B6803F00703002B13D07B68B5
:1058F00023F0070308337B607B6803F00703002B6A
:1059000009D04FF0500383F31188BFF36F8FBFF3BB
:105910004F8F7B61FEE77B68002B68D0414B1B6893
:105920007A689A4263D8404B3B623F4B1B687B626C
:1059300004E07B6A3B627B6A1B687B627B6A5B6814
:105940007A689A4203D97B6A1B68002BF1D1334BEA
:105950001B687A6A9A424AD03B6A1B680822134441
:10596000FB617B6A1A683B6A1A607B6A5A687B68CB
:10597000D21A08235B009A421ED97A6A7B681344C4
:10598000BB61BB6903F00703002B09D04FF0500344
:1059900083F31188BFF36F8FBFF34F8F3B61FEE737
:1059A0007B6A5A687B68D21ABB695A607B6A7A68DC
:1059B0005A60B86900F0F6F81A4B1A687B6A5B689F
:1059C000D31A184A1360174B1A68184B1B689A426F
:1059D00003D2144B1B68154A13607B6A5A68104B3C
:1059E0001B681A437B6A5A607B6A00221A60FFF7C1
:1059F000CDFAFB6903F00703002B09D04FF05003E9
:105A000083F31188BFF36F8FBFF34F8FFB60FEE707
:105A1000FB6918462837BD4680BD00BFEC3D00201D
:105A2000F83D0020F03D0020E43D0020F43D002042
:105A300080B586B000AF78607B687B617B68002BA7
:105A400046D008235B427A6913447B617B693B61E2
:105A50003B695A68204B1B681340002B09D14FF05B
:105A6000500383F31188BFF36F8FBFF34F8FFB6039
:105A7000FEE73B691B68002B09D04FF0500383F30E
:105A80001188BFF36F8FBFF34F8FBB60FEE73B6999
:105A90005A68114B1B681340002B19D03B691B68D7
:105AA000002B15D13B695A680B4B1B68DB431A402E
:105AB0003B695A60FFF75CFA3B695A68074B1B6801
:105AC0001344064A1360386900F06CF8FFF75EFA79
:105AD00000BF1837BD4680BDF83D0020F03D0020D6
